:100000000C9435000C945D000C945D000C945D0024
:100010000C945D000C945D000C945D000C945D00EC
:100020000C945D000C945D000C945D000C945D00DC
:100030000C945D000C945D000C945D000C945D00CC
:100040000C9479010C945D000C94E9010C94C301AB
:100050000C945D000C945D000C945D000C945D00AC
:100060000C945D000C945D00300311241FBECFEF93
:10007000D8E0DEBFCDBF11E0A0E0B1E0EEE0F7E0F8
:1000800002C005900D92A433B107D9F721E0A4E393
:10009000B1E001C01D92AA3DB207E1F710E0C5E34F
:1000A000D0E004C02197FE010E947F03C433D10732
:1000B000C9F70E941B020C9485030C940000AF92B8
:1000C000BF92CF92DF92EF92FF920F931F93CF9345
:1000D000DF936C017B018B01040F151FEB015E01A7
:1000E000AE18BF08C017D10759F06991D601ED913C
:1000F000FC910190F081E02DC6010995892B79F7DB
:10010000C501DF91CF911F910F91FF90EF90DF908C
:10011000CF90BF90AF900895FC01538D448D252F53
:1001200030E0842F90E0821B930B541710F0CF9691
:10013000089501970895FC01918D828D981761F0C3
:10014000A28DAE0FBF2FB11D5D968C91928D9F5FDA
:100150009F73928F90E008958FEF9FEF0895FC01B9
:10016000918D828D981731F0828DE80FF11D858D6C
:1001700090E008958FEF9FEF0895FC01918D228DFF
:10018000892F90E0805C9F4F821B91098F73992784
:1001900008958DE391E00E94BD0021E0892B09F4D0
:1001A00020E0822F089580E090E0892B29F00E94C2
:1001B000C90081110C9400000895FC01A48DA80FC2
:1001C000B92FB11DA35ABF4F2C91848D90E0019699
:1001D0008F739927848FA689B7892C93A089B189B9
:1001E0008C91837080648C93938D848D981306C05A
:1001F0000288F389E02D80818F7D80830895EF92BE
:10020000FF920F931F93CF93DF93EC0181E0888FD0
:100210009B8D8C8D98131AC0E889F989808185FFA0
:1002200015C09FB7F894EE89FF896083E889F98942
:1002300080818370806480839FBF81E090E0DF9144
:10024000CF911F910F91FF90EF900895F62E0B8D97
:1002500010E00F5F1F4F0F731127E02E8C8D8E1152
:100260000CC00FB607FCFACFE889F989808185FFB9
:10027000F5CFCE010E94DD00F1CFEB8DEC0FFD2F0D
:10028000F11DE35AFF4FF0829FB7F8940B8FEA8974
:10029000FB8980818062CFCFCF93DF93EC01888D83
:1002A0008823B9F0AA89BB89E889F9898C9185FDF1
:1002B00003C0808186FD0DC00FB607FCF7CF8C917F
:1002C00085FFF2CF808185FFEDCFCE010E94DD005A
:1002D000E9CFDF91CF910895FC0101900020E9F76B
:1002E0003197AF01481B590BBC018DE391E00C9491
:1002F0005F001F920F920FB60F9211242F933F931E
:100300008F939F93AF93BF938091390190913A015E
:10031000A0913B01B0913C013091380123E0230FC3
:100320002D3758F50196A11DB11D209338018093FA
:10033000390190933A01A0933B01B0933C01809125
:10034000340190913501A0913601B09137010196A9
:10035000A11DB11D8093340190933501A093360106
:10036000B0933701BF91AF919F918F913F912F91A2
:100370000F900FBE0F901F90189526E8230F02963E
:10038000A11DB11DD2CF1F920F920FB60F92112453
:100390002F933F934F935F936F937F938F939F938D
:1003A000AF93BF93EF93FF938DE391E00E94DD0045
:1003B000FF91EF91BF91AF919F918F917F916F913D
:1003C0005F914F913F912F910F900FBE0F901F9013
:1003D00018951F920F920FB60F9211242F938F939F
:1003E0009F93EF93FF93E0914D01F0914E01808137
:1003F000E0915301F091540182FD1BC090818091E6
:1004000056018F5F8F7320915701821741F0E09161
:100410005601F0E0E35CFE4F958F80935601FF910B
:10042000EF919F918F912F910F900FBE0F901F9082
:1004300018958081F4CFCF93DF93CDB7DEB7AB971C
:100440000FB6F894DEBF0FBECDBF789484B582603E
:1004500084BD84B5816084BD85B5826085BD85B568
:10046000816085BD80916E00816080936E001092E6
:100470008100809181008260809381008091810061
:1004800081608093810080918000816080938000F2
:100490008091B10084608093B1008091B000816050
:1004A0008093B00080917A00846080937A0080917C
:1004B0007A00826080937A0080917A0081608093D4
:1004C0007A0080917A00806880937A001092C1004F
:1004D000E0914D01F0914E0182E08083E09149016D
:1004E000F0914A011082E0914B01F0914C018FECA8
:1004F000808310925501E0915101F091520186E004
:100500008083E0914F01F091500180818061808370
:10051000E0914F01F0915001808188608083E091EB
:100520004F01F0915001808180688083E0914F01FC
:10053000F091500180818F7D80838AE0482E512C7C
:10054000612C712C90E0292E90E0392E8DE391E002
:100550000E94BD00892B09F461C08DE391E00E94E7
:100560009B00813609F05AC08AE0E0E0F1E0DE014C
:10057000929601900D928A95E1F78CE191E00E94AC
:100580006C018EE191E00E946C016E0182E2C80E66
:10059000D11C10E000E0F601819091906F01092CD0
:1005A000000CAA08BB08B7FE45C06DE28DE391E0E0
:1005B0000E94FF0022273327A901281939094A0977
:1005C0005B0919A2CE0181967C01CA01B901A30180
:1005D00092010E945D03605DF70162937F01211526
:1005E00031054105510589F7E114F10419F0C701FE
:1005F0000E946C010430110521F08DE291E00E940F
:100600006C010F5F1F4F0530110529F68FE291E055
:100610000E946C0182E391E00E946C01211431047C
:1006200009F494CF0E94C900882309F48FCF0E9457
:1006300000008CCFA501940119A2CE0181967C0106
:10064000CA01B901A30192010E945D03605DF70137
:1006500062937F01211531054105510589F7C4CF0A
:10066000EDE3F1E01382128288EE93E0A0E0B0E0C7
:1006700084839583A683B7838EE091E09183808302
:1006800085EC90E09587848784EC90E09787868757
:1006900080EC90E0918B808B81EC90E0938B828B4F
:1006A00082EC90E0958B848B86EC90E0978B868B28
:1006B000118E128E138E148E0895A1E21A2EAA1B8B
:1006C000BB1BFD010DC0AA1FBB1FEE1FFF1FA21702
:1006D000B307E407F50720F0A21BB30BE40BF50BFF
:1006E000661F771F881F991F1A9469F76095709588
:1006F000809590959B01AC01BD01CF010895EE0F4F
:0E070000FF1F0590F491E02D0994F894FFCFAF
:10070E000100000001000100000000000000FF00D9
:10071E005F008C004C01BD009B00AF0024007B22CB
:10072E0073656375656E636961223A5B002C005DCB
:04073E007D00230017
:00000001FF
